{
  "contractName": "ContractFactory",
  "abi": [
    {
      "constant": true,
      "inputs": [
        {
          "name": "",
          "type": "address"
        },
        {
          "name": "",
          "type": "uint256"
        }
      ],
      "name": "sellerToContracts",
      "outputs": [
        {
          "name": "",
          "type": "address"
        }
      ],
      "payable": false,
      "stateMutability": "view",
      "type": "function"
    },
    {
      "constant": true,
      "inputs": [
        {
          "name": "",
          "type": "address"
        },
        {
          "name": "",
          "type": "uint256"
        }
      ],
      "name": "buyerToContracts",
      "outputs": [
        {
          "name": "",
          "type": "address"
        }
      ],
      "payable": false,
      "stateMutability": "view",
      "type": "function",
      "signature": "0xb3c22ce9"
    },
    {
      "constant": false,
      "inputs": [
        {
          "name": "name",
          "type": "string"
        },
        {
          "name": "buyer",
          "type": "address"
        }
      ],
      "name": "createContract",
      "outputs": [],
      "payable": false,
      "stateMutability": "nonpayable",
      "type": "function"
    }
  ],
  "bytecode": "0x608060405234801561001057600080fd5b50612b6d806100206000396000f3fe608060405234801561001057600080fd5b5060043610610053576000357c01000000000000000000000000000000000000000000000000000000009004806318f80bb914610058578063ae3d3b37146100d1575b600080fd5b6100cf6004803603602081101561006e57600080fd5b810190808035906020019064010000000081111561008b57600080fd5b82018360208201111561009d57600080fd5b803590602001918460018302840111640100000000831117156100bf57600080fd5b909192939192939050505061015f565b005b61011d600480360360408110156100e757600080fd5b81019080803573ffffffffffffffffffffffffffffffffffffffff1690602001909291908035906020019092919050505061029a565b604051808273ffffffffffffffffffffffffffffffffffffffff1673ffffffffffffffffffffffffffffffffffffffff16815260200191505060405180910390f35b600033838361016c6102e7565b808473ffffffffffffffffffffffffffffffffffffffff1673ffffffffffffffffffffffffffffffffffffffff168152602001806020018281038252848482818152602001925080828437600081840152601f19601f820116905080830192505050945050505050604051809103906000f0801580156101f0573d6000803e3d6000fd5b5090506000803373ffffffffffffffffffffffffffffffffffffffff1673ffffffffffffffffffffffffffffffffffffffff1681526020019081526020016000208190806001815401808255809150509060018203906000526020600020016000909192909190916101000a81548173ffffffffffffffffffffffffffffffffffffffff021916908373ffffffffffffffffffffffffffffffffffffffff16021790555050505050565b6000602052816000526040600020818154811015156102b557fe5b906000526020600020016000915091509054906101000a900473ffffffffffffffffffffffffffffffffffffffff1681565b60405161284a806102f88339019056fe60806040523480156200001157600080fd5b506040516200284a3803806200284a833981018060405260408110156200003757600080fd5b810190808051906020019092919080516401000000008111156200005a57600080fd5b828101905060208101848111156200007157600080fd5b81518560018202830111640100000000821117156200008f57600080fd5b50509291905050508060019080519060200190620000af929190620001b9565b5081600260006101000a81548173ffffffffffffffffffffffffffffffffffffffff021916908373ffffffffffffffffffffffffffffffffffffffff160217905550600260009054906101000a900473ffffffffffffffffffffffffffffffffffffffff166200011e62000240565b808273ffffffffffffffffffffffffffffffffffffffff1673ffffffffffffffffffffffffffffffffffffffff168152602001915050604051809103906000f08015801562000171573d6000803e3d6000fd5b506000806101000a81548173ffffffffffffffffffffffffffffffffffffffff021916908373ffffffffffffffffffffffffffffffffffffffff160217905550505062000279565b828054600181600116156101000203166002900490600052602060002090601f016020900481019282601f10620001fc57805160ff19168380011785556200022d565b828001600101855582156200022d579182015b828111156200022c5782518255916020019190600101906200020f565b5b5090506200023c919062000251565b5090565b60405161116a80620016e083390190565b6200027691905b808211156200027257600081600090555060010162000258565b5090565b90565b61145780620002896000396000f3fe6080604052600436106100df576000357c010000000000000000000000000000000000000000000000000000000090048063a3f09ad61161009c578063cfea9c6211610076578063cfea9c621461030c578063d86866e41461034a578063e9c9714c14610387578063fbbf93a01461039e576100df565b8063a3f09ad61461026e578063aa8c217c146102b2578063ba446ae9146102dd576100df565b806306fdde03146100e457806308551a53146101745780630f44c0e1146101cb5780633832c96d146101e25780637150d8ae1461020d5780638d68cf5914610264575b600080fd5b3480156100f057600080fd5b506100f96104bb565b6040518080602001828103825283818151815260200191508051906020019080838360005b8381101561013957808201518184015260208101905061011e565b50505050905090810190601f1680156101665780820380516001836020036101000a031916815260200191505b509250505060405180910390f35b34801561018057600080fd5b50610189610559565b604051808273ffffffffffffffffffffffffffffffffffffffff1673ffffffffffffffffffffffffffffffffffffffff16815260200191505060405180910390f35b3480156101d757600080fd5b506101e061057f565b005b3480156101ee57600080fd5b506101f76107ee565b6040518082815260200191505060405180910390f35b34801561021957600080fd5b5061022261090c565b604051808273ffffffffffffffffffffffffffffffffffffffff1673ffffffffffffffffffffffffffffffffffffffff16815260200191505060405180910390f35b61026c610932565b005b6102b06004803603602081101561028457600080fd5b81019080803573ffffffffffffffffffffffffffffffffffffffff169060200190929190505050610b08565b005b3480156102be57600080fd5b506102c7610c11565b6040518082815260200191505060405180910390f35b3480156102e957600080fd5b506102f2610c17565b604051808215151515815260200191505060405180910390f35b34801561031857600080fd5b506103486004803603602081101561032f57600080fd5b81019080803560ff169060200190929190505050610c2a565b005b34801561035657600080fd5b506103856004803603602081101561036d57600080fd5b81019080803515159060200190929190505050610e82565b005b34801561039357600080fd5b5061039c610f64565b005b3480156103aa57600080fd5b506103b3611176565b60405180806020018773ffffffffffffffffffffffffffffffffffffffff1673ffffffffffffffffffffffffffffffffffffffff1681526020018673ffffffffffffffffffffffffffffffffffffffff1673ffffffffffffffffffffffffffffffffffffffff1681526020018581526020018415151515815260200183600281111561043b57fe5b60ff168152602001828103825288818151815260200191508051906020019080838360005b8381101561047b578082015181840152602081019050610460565b50505050905090810190601f1680156104a85780820380516001836020036101000a031916815260200191505b5097505050505050505060405180910390f35b60018054600181600116156101000203166002900480601f0160208091040260200160405190810160405280929190818152602001828054600181600116156101000203166002900480156105515780601f1061052657610100808354040283529160200191610551565b820191906000526020600020905b81548152906001019060200180831161053457829003601f168201915b505050505081565b600260009054906101000a900473ffffffffffffffffffffffffffffffffffffffff1681565b600260009054906101000a900473ffffffffffffffffffffffffffffffffffffffff1673ffffffffffffffffffffffffffffffffffffffff163373ffffffffffffffffffffffffffffffffffffffff16141515610644576040517f08c379a00000000000000000000000000000000000000000000000000000000081526004018080602001828103825260168152602001807f55736572206973206e6f74207468652053656c6c65720000000000000000000081525060200191505060405180910390fd5b60011515600560009054906101000a900460ff16151514151561066657600080fd5b6001600281111561067357fe5b600560019054906101000a900460ff16600281111561068e57fe5b14151561069a57600080fd5b6004546106a56107ee565b101515156106b257600080fd5b6000809054906101000a900473ffffffffffffffffffffffffffffffffffffffff1673ffffffffffffffffffffffffffffffffffffffff166343d726d66040518163ffffffff167c0100000000000000000000000000000000000000000000000000000000028152600401600060405180830381600087803b15801561073757600080fd5b505af115801561074b573d6000803e3d6000fd5b505050506000809054906101000a900473ffffffffffffffffffffffffffffffffffffffff1673ffffffffffffffffffffffffffffffffffffffff16639af6549a6040518163ffffffff167c0100000000000000000000000000000000000000000000000000000000028152600401600060405180830381600087803b1580156107d457600080fd5b505af11580156107e8573d6000803e3d6000fd5b50505050565b60008060009054906101000a900473ffffffffffffffffffffffffffffffffffffffff1673ffffffffffffffffffffffffffffffffffffffff1663e3a9db1a600360009054906101000a900473ffffffffffffffffffffffffffffffffffffffff166040518263ffffffff167c0100000000000000000000000000000000000000000000000000000000028152600401808273ffffffffffffffffffffffffffffffffffffffff1673ffffffffffffffffffffffffffffffffffffffff16815260200191505060206040518083038186803b1580156108cc57600080fd5b505afa1580156108e0573d6000803e3d6000fd5b505050506040513d60208110156108f657600080fd5b8101908080519060200190929190505050905090565b600360009054906101000a900473ffffffffffffffffffffffffffffffffffffffff1681565b600360009054906101000a900473ffffffffffffffffffffffffffffffffffffffff1673ffffffffffffffffffffffffffffffffffffffff163373ffffffffffffffffffffffffffffffffffffffff161415156109f7576040517f08c379a00000000000000000000000000000000000000000000000000000000081526004018080602001828103825260158152602001807f55736572206973206e6f7420746865204275796572000000000000000000000081525060200191505060405180910390fd5b600034111515610a0657600080fd5b346004819055506000809054906101000a900473ffffffffffffffffffffffffffffffffffffffff1673ffffffffffffffffffffffffffffffffffffffff1663f340fa01600454600360009054906101000a900473ffffffffffffffffffffffffffffffffffffffff166040518363ffffffff167c0100000000000000000000000000000000000000000000000000000000028152600401808273ffffffffffffffffffffffffffffffffffffffff1673ffffffffffffffffffffffffffffffffffffffff1681526020019150506000604051808303818588803b158015610aed57600080fd5b505af1158015610b01573d6000803e3d6000fd5b5050505050565b600260009054906101000a900473ffffffffffffffffffffffffffffffffffffffff1673ffffffffffffffffffffffffffffffffffffffff163373ffffffffffffffffffffffffffffffffffffffff16141515610bcd576040517f08c379a00000000000000000000000000000000000000000000000000000000081526004018080602001828103825260168152602001807f55736572206973206e6f74207468652053656c6c65720000000000000000000081525060200191505060405180910390fd5b80600360006101000a81548173ffffffffffffffffffffffffffffffffffffffff021916908373ffffffffffffffffffffffffffffffffffffffff16021790555050565b60045481565b600560009054906101000a900460ff1681565b600360009054906101000a900473ffffffffffffffffffffffffffffffffffffffff1673ffffffffffffffffffffffffffffffffffffffff163373ffffffffffffffffffffffffffffffffffffffff16141515610cef576040517f08c379a00000000000000000000000000000000000000000000000000000000081526004018080602001828103825260158152602001807f55736572206973206e6f7420746865204275796572000000000000000000000081525060200191505060405180910390fd5b80600560016101000a81548160ff02191690836002811115610d0d57fe5b0217905550600280811115610d1e57fe5b600560019054906101000a900460ff166002811115610d3957fe5b1415610de1576000809054906101000a900473ffffffffffffffffffffffffffffffffffffffff1673ffffffffffffffffffffffffffffffffffffffff16638c52dc416040518163ffffffff167c0100000000000000000000000000000000000000000000000000000000028152600401600060405180830381600087803b158015610dc457600080fd5b505af1158015610dd8573d6000803e3d6000fd5b50505050610e7f565b6000809054906101000a900473ffffffffffffffffffffffffffffffffffffffff1673ffffffffffffffffffffffffffffffffffffffff1663f48c46336040518163ffffffff167c0100000000000000000000000000000000000000000000000000000000028152600401600060405180830381600087803b158015610e6657600080fd5b505af1158015610e7a573d6000803e3d6000fd5b505050505b50565b600260009054906101000a900473ffffffffffffffffffffffffffffffffffffffff1673ffffffffffffffffffffffffffffffffffffffff163373ffffffffffffffffffffffffffffffffffffffff16141515610f47576040517f08c379a00000000000000000000000000000000000000000000000000000000081526004018080602001828103825260168152602001807f55736572206973206e6f74207468652053656c6c65720000000000000000000081525060200191505060405180910390fd5b80600560006101000a81548160ff02191690831515021790555050565b600360009054906101000a900473ffffffffffffffffffffffffffffffffffffffff1673ffffffffffffffffffffffffffffffffffffffff163373ffffffffffffffffffffffffffffffffffffffff16141515611029576040517f08c379a00000000000000000000000000000000000000000000000000000000081526004018080602001828103825260158152602001807f55736572206973206e6f7420746865204275796572000000000000000000000081525060200191505060405180910390fd5b60011515600560009054906101000a900460ff16151514151561104b57600080fd5b60028081111561105757fe5b600560019054906101000a900460ff16600281111561107257fe5b14151561107e57600080fd5b6000809054906101000a900473ffffffffffffffffffffffffffffffffffffffff1673ffffffffffffffffffffffffffffffffffffffff166351cff8d9600360009054906101000a900473ffffffffffffffffffffffffffffffffffffffff166040518263ffffffff167c0100000000000000000000000000000000000000000000000000000000028152600401808273ffffffffffffffffffffffffffffffffffffffff1673ffffffffffffffffffffffffffffffffffffffff168152602001915050600060405180830381600087803b15801561115c57600080fd5b505af1158015611170573d6000803e3d6000fd5b50505050565b60606000806000806000600360009054906101000a900473ffffffffffffffffffffffffffffffffffffffff1673ffffffffffffffffffffffffffffffffffffffff163373ffffffffffffffffffffffffffffffffffffffff16141515611245576040517f08c379a00000000000000000000000000000000000000000000000000000000081526004018080602001828103825260158152602001807f55736572206973206e6f7420746865204275796572000000000000000000000081525060200191505060405180910390fd5b600260009054906101000a900473ffffffffffffffffffffffffffffffffffffffff1673ffffffffffffffffffffffffffffffffffffffff163373ffffffffffffffffffffffffffffffffffffffff1614151561130a576040517f08c379a00000000000000000000000000000000000000000000000000000000081526004018080602001828103825260168152602001807f55736572206973206e6f74207468652053656c6c65720000000000000000000081525060200191505060405180910390fd5b6001600260009054906101000a900473ffffffffffffffffffffffffffffffffffffffff16600360009054906101000a900473ffffffffffffffffffffffffffffffffffffffff16600454600560009054906101000a900460ff16600560019054906101000a900460ff16858054600181600116156101000203166002900480601f01602080910402602001604051908101604052809291908181526020018280546001816001161561010002031660029004801561140a5780601f106113df5761010080835404028352916020019161140a565b820191906000526020600020905b8154815290600101906020018083116113ed57829003601f168201915b5050505050955084945083935095509550955095509550955090919293949556fea165627a7a72305820cd4d227f21d25e3c3f809b110900420e0bf246bfcca41beb2026c1eba2ad1b470029608060405234801561001057600080fd5b5060405160208061116a8339810180604052602081101561003057600080fd5b8101908080519060200190929190505050336000806101000a81548173ffffffffffffffffffffffffffffffffffffffff021916908373ffffffffffffffffffffffffffffffffffffffff1602179055507f4101e71e974f68df5e9730cc223280b41654676bbb052cdcc735c3337e64d2d96000809054906101000a900473ffffffffffffffffffffffffffffffffffffffff16604051808273ffffffffffffffffffffffffffffffffffffffff1673ffffffffffffffffffffffffffffffffffffffff16815260200191505060405180910390a1600073ffffffffffffffffffffffffffffffffffffffff168173ffffffffffffffffffffffffffffffffffffffff161415151561018d576040517f08c379a000000000000000000000000000000000000000000000000000000000815260040180806020018281038252602d81526020018061113d602d913960400191505060405180910390fd5b80600260016101000a81548173ffffffffffffffffffffffffffffffffffffffff021916908373ffffffffffffffffffffffffffffffffffffffff1602179055506000600260006101000a81548160ff021916908360028111156101ed57fe5b021790555050610f3b806102026000396000f3fe6080604052600436106100c4576000357c0100000000000000000000000000000000000000000000000000000000900480639af6549a116100815780639af6549a14610259578063c19d93fb14610270578063c6dbdf61146102a9578063e3a9db1a14610300578063f340fa0114610365578063f48c4633146103a9576100c4565b80632348238c146100c957806338af3eed1461011a57806343d726d61461017157806351cff8d914610188578063685ca194146101d95780638c52dc4114610242575b600080fd5b3480156100d557600080fd5b50610118600480360360208110156100ec57600080fd5b81019080803573ffffffffffffffffffffffffffffffffffffffff1690602001909291905050506103c0565b005b34801561012657600080fd5b5061012f61051e565b604051808273ffffffffffffffffffffffffffffffffffffffff1673ffffffffffffffffffffffffffffffffffffffff16815260200191505060405180910390f35b34801561017d57600080fd5b50610186610548565b005b34801561019457600080fd5b506101d7600480360360208110156101ab57600080fd5b81019080803573ffffffffffffffffffffffffffffffffffffffff169060200190929190505050610674565b005b3480156101e557600080fd5b50610228600480360360208110156101fc57600080fd5b81019080803573ffffffffffffffffffffffffffffffffffffffff169060200190929190505050610694565b604051808215151515815260200191505060405180910390f35b34801561024e57600080fd5b506102576106c6565b005b34801561026557600080fd5b5061026e6107f3565b005b34801561027c57600080fd5b506102856108f4565b6040518082600281111561029557fe5b60ff16815260200191505060405180910390f35b3480156102b557600080fd5b506102be61090b565b604051808273ffffffffffffffffffffffffffffffffffffffff1673ffffffffffffffffffffffffffffffffffffffff16815260200191505060405180910390f35b34801561030c57600080fd5b5061034f6004803603602081101561032357600080fd5b81019080803573ffffffffffffffffffffffffffffffffffffffff169060200190929190505050610934565b6040518082815260200191505060405180910390f35b6103a76004803603602081101561037b57600080fd5b81019080803573ffffffffffffffffffffffffffffffffffffffff16906020019092919050505061097d565b005b3480156103b557600080fd5b506103be610a09565b005b6000809054906101000a900473ffffffffffffffffffffffffffffffffffffffff1673ffffffffffffffffffffffffffffffffffffffff163373ffffffffffffffffffffffffffffffffffffffff1614151561041b57600080fd5b600073ffffffffffffffffffffffffffffffffffffffff168173ffffffffffffffffffffffffffffffffffffffff161415151561045757600080fd5b806000806101000a81548173ffffffffffffffffffffffffffffffffffffffff021916908373ffffffffffffffffffffffffffffffffffffffff1602179055507f4101e71e974f68df5e9730cc223280b41654676bbb052cdcc735c3337e64d2d96000809054906101000a900473ffffffffffffffffffffffffffffffffffffffff16604051808273ffffffffffffffffffffffffffffffffffffffff1673ffffffffffffffffffffffffffffffffffffffff16815260200191505060405180910390a150565b6000600260019054906101000a900473ffffffffffffffffffffffffffffffffffffffff16905090565b6000809054906101000a900473ffffffffffffffffffffffffffffffffffffffff1673ffffffffffffffffffffffffffffffffffffffff163373ffffffffffffffffffffffffffffffffffffffff161415156105a357600080fd5b600060028111156105b057fe5b600260009054906101000a900460ff1660028111156105cb57fe5b141515610623576040517f08c379a0000000000000000000000000000000000000000000000000000000008152600401808060200182810382526029815260200180610eb56029913960400191505060405180910390fd5b60028060006101000a81548160ff0219169083600281111561064157fe5b02179055507f088672c3a6e342f7cd94a65ba63b79df24a8973927b4d05d803c44bbf787d12f60405160405180910390a1565b61067d81610694565b151561068857600080fd5b61069181610b36565b50565b6000600160028111156106a357fe5b600260009054906101000a900460ff1660028111156106be57fe5b149050919050565b6000809054906101000a900473ffffffffffffffffffffffffffffffffffffffff1673ffffffffffffffffffffffffffffffffffffffff163373ffffffffffffffffffffffffffffffffffffffff1614151561072157600080fd5b6000600281111561072e57fe5b600260009054906101000a900460ff16600281111561074957fe5b1415156107a1576040517f08c379a0000000000000000000000000000000000000000000000000000000008152600401808060200182810382526032815260200180610ede6032913960400191505060405180910390fd5b6001600260006101000a81548160ff021916908360028111156107c057fe5b02179055507f599d8e5a83cffb867d051598c4d70e805d59802d8081c1c7d6dffc5b6aca2b8960405160405180910390a1565b6002808111156107ff57fe5b600260009054906101000a900460ff16600281111561081a57fe5b141515610872576040517f08c379a0000000000000000000000000000000000000000000000000000000008152600401808060200182810382526038815260200180610e1c6038913960400191505060405180910390fd5b600260019054906101000a900473ffffffffffffffffffffffffffffffffffffffff1673ffffffffffffffffffffffffffffffffffffffff166108fc3073ffffffffffffffffffffffffffffffffffffffff16319081150290604051600060405180830381858888f193505050501580156108f1573d6000803e3d6000fd5b50565b6000600260009054906101000a900460ff16905090565b60008060009054906101000a900473ffffffffffffffffffffffffffffffffffffffff16905090565b6000600160008373ffffffffffffffffffffffffffffffffffffffff1673ffffffffffffffffffffffffffffffffffffffff168152602001908152602001600020549050919050565b6000600281111561098a57fe5b600260009054906101000a900460ff1660028111156109a557fe5b1415156109fd576040517f08c379a000000000000000000000000000000000000000000000000000000000815260040180806020018281038252602b815260200180610e8a602b913960400191505060405180910390fd5b610a0681610cb3565b50565b6000809054906101000a900473ffffffffffffffffffffffffffffffffffffffff1673ffffffffffffffffffffffffffffffffffffffff163373ffffffffffffffffffffffffffffffffffffffff16141515610a6457600080fd5b60016002811115610a7157fe5b600260009054906101000a900460ff166002811115610a8c57fe5b141515610ae4576040517f08c379a0000000000000000000000000000000000000000000000000000000008152600401808060200182810382526036815260200180610e546036913960400191505060405180910390fd5b6000600260006101000a81548160ff02191690836002811115610b0357fe5b02179055507f6f9f51c776fa2eae83efa23a12ec950301ebb8667b6ec69e745e047e340f327c60405160405180910390a1565b6000809054906101000a900473ffffffffffffffffffffffffffffffffffffffff1673ffffffffffffffffffffffffffffffffffffffff163373ffffffffffffffffffffffffffffffffffffffff16141515610b9157600080fd5b6000600160008373ffffffffffffffffffffffffffffffffffffffff1673ffffffffffffffffffffffffffffffffffffffff1681526020019081526020016000205490506000600160008473ffffffffffffffffffffffffffffffffffffffff1673ffffffffffffffffffffffffffffffffffffffff168152602001908152602001600020819055508173ffffffffffffffffffffffffffffffffffffffff166108fc829081150290604051600060405180830381858888f19350505050158015610c60573d6000803e3d6000fd5b508173ffffffffffffffffffffffffffffffffffffffff167f7084f5476618d8e60b11ef0d7d3f06914655adb8793e28ff7f018d4c76d505d5826040518082815260200191505060405180910390a25050565b6000809054906101000a900473ffffffffffffffffffffffffffffffffffffffff1673ffffffffffffffffffffffffffffffffffffffff163373ffffffffffffffffffffffffffffffffffffffff16141515610d0e57600080fd5b6000349050610d6581600160008573ffffffffffffffffffffffffffffffffffffffff1673ffffffffffffffffffffffffffffffffffffffff16815260200190815260200160002054610dfa90919063ffffffff16565b600160008473ffffffffffffffffffffffffffffffffffffffff1673ffffffffffffffffffffffffffffffffffffffff168152602001908152602001600020819055508173ffffffffffffffffffffffffffffffffffffffff167f2da466a7b24304f47e87fa2e1e5a81b9831ce54fec19055ce277ca2f39ba42c4826040518082815260200191505060405180910390a25050565b6000808284019050838110151515610e1157600080fd5b809150509291505056fe526566756e64457363726f773a2062656e65666963696172792063616e206f6e6c79207769746864726177207768696c6520636c6f736564526566756e64457363726f773a2063616e206f6e6c792064697361626c6520726566756e6473207768696c6520726566756e64696e67526566756e64457363726f773a2063616e206f6e6c79206465706f736974207768696c6520616374697665526566756e64457363726f773a2063616e206f6e6c7920636c6f7365207768696c6520616374697665526566756e64457363726f773a2063616e206f6e6c7920656e61626c6520726566756e6473207768696c6520616374697665a165627a7a7230582025932973ee33a9428d17769819b59a3e79eb72c42b7d0787a599e6c3b029f7c90029526566756e64457363726f773a2062656e656669636961727920697320746865207a65726f2061646472657373a165627a7a72305820844f56912a07ab02cfa9a3615a943b8a2a254e96517246b001cefa4dd2c23cba0029",
  "source": "pragma solidity ^0.5.2;\n\nimport './ProductContract.sol';\n\ncontract ContractFactory {\n    mapping(address => address[]) public sellerToContracts;\n\n    function createContract(string calldata name) external {\n        ProductContract pcontract = new ProductContract(msg.sender, name);\n        sellerToContracts[msg.sender].push(address(pcontract));\n    }\n}\n",
  "sourcePath": "/Users/cejas/hacketon052019/consensus-2019-hackathon/contracts/ContractFactory.sol",
  "compiler": {
    "name": "solc",
    "version": "0.5.2+commit.1df8f40c.Emscripten.clang"
  },
  "schemaVersion": "3.0.9",
  "updatedAt": "2019-05-11T23:21:26.333Z",
  "devdoc": {
    "methods": {}
  },
  "userdoc": {
    "methods": {}
  }
}