{
  "contractName": "ContractFactory",
  "abi": [
    {
      "constant": true,
      "inputs": [
        {
          "name": "",
          "type": "address"
        },
        {
          "name": "",
          "type": "uint256"
        }
      ],
      "name": "sellerToContracts",
      "outputs": [
        {
          "name": "",
          "type": "address"
        }
      ],
      "payable": false,
      "stateMutability": "view",
      "type": "function"
    },
    {
      "constant": true,
      "inputs": [
        {
          "name": "",
          "type": "address"
        },
        {
          "name": "",
          "type": "uint256"
        }
      ],
      "name": "buyerToContracts",
      "outputs": [
        {
          "name": "",
          "type": "address"
        }
      ],
      "payable": false,
      "stateMutability": "view",
      "type": "function"
    },
    {
      "constant": false,
      "inputs": [
        {
          "name": "name",
          "type": "string"
        },
        {
          "name": "buyer",
          "type": "address"
        }
      ],
      "name": "createContract",
      "outputs": [],
      "payable": false,
      "stateMutability": "nonpayable",
      "type": "function"
    },
    {
      "constant": true,
      "inputs": [
        {
          "name": "seller",
          "type": "address"
        }
      ],
      "name": "getSellerContracts",
      "outputs": [
        {
          "name": "",
          "type": "address[]"
        }
      ],
      "payable": false,
      "stateMutability": "view",
      "type": "function"
    },
    {
      "constant": true,
      "inputs": [
        {
          "name": "buyer",
          "type": "address"
        }
      ],
      "name": "getBuyerContracts",
      "outputs": [
        {
          "name": "",
          "type": "address[]"
        }
      ],
      "payable": false,
      "stateMutability": "view",
      "type": "function"
    }
  ],
  "bytecode": "0x608060405234801561001057600080fd5b506132a5806100206000396000f3fe608060405234801561001057600080fd5b5060043610610074576000357c0100000000000000000000000000000000000000000000000000000000900480633bd94a7214610079578063a719427814610112578063ae3d3b37146101ab578063b3c22ce914610239578063b500d4f4146102c7575b600080fd5b6101106004803603604081101561008f57600080fd5b81019080803590602001906401000000008111156100ac57600080fd5b8201836020820111156100be57600080fd5b803590602001918460018302840111640100000000831117156100e057600080fd5b9091929391929390803573ffffffffffffffffffffffffffffffffffffffff169060200190929190505050610360565b005b6101546004803603602081101561012857600080fd5b81019080803573ffffffffffffffffffffffffffffffffffffffff1690602001909291905050506105fa565b6040518080602001828103825283818151815260200191508051906020019060200280838360005b8381101561019757808201518184015260208101905061017c565b505050509050019250505060405180910390f35b6101f7600480360360408110156101c157600080fd5b81019080803573ffffffffffffffffffffffffffffffffffffffff169060200190929190803590602001909291905050506106c7565b604051808273ffffffffffffffffffffffffffffffffffffffff1673ffffffffffffffffffffffffffffffffffffffff16815260200191505060405180910390f35b6102856004803603604081101561024f57600080fd5b81019080803573ffffffffffffffffffffffffffffffffffffffff16906020019092919080359060200190929190505050610714565b604051808273ffffffffffffffffffffffffffffffffffffffff1673ffffffffffffffffffffffffffffffffffffffff16815260200191505060405180910390f35b610309600480360360208110156102dd57600080fd5b81019080803573ffffffffffffffffffffffffffffffffffffffff169060200190929190505050610761565b6040518080602001828103825283818151815260200191508051906020019060200280838360005b8381101561034c578082015181840152602081019050610331565b505050509050019250505060405180910390f35b8073ffffffffffffffffffffffffffffffffffffffff163373ffffffffffffffffffffffffffffffffffffffff16141515156103e7576040517f08c379a000000000000000000000000000000000000000000000000000000000815260040180806020018281038252602b81526020018061324f602b913960400191505060405180910390fd5b6000338285856103f561082d565b808573ffffffffffffffffffffffffffffffffffffffff1673ffffffffffffffffffffffffffffffffffffffff1681526020018473ffffffffffffffffffffffffffffffffffffffff1673ffffffffffffffffffffffffffffffffffffffff168152602001806020018281038252848482818152602001925080828437600081840152601f19601f82011690508083019250505095505050505050604051809103906000f0801580156104ac573d6000803e3d6000fd5b5090506000803373ffffffffffffffffffffffffffffffffffffffff1673ffffffffffffffffffffffffffffffffffffffff1681526020019081526020016000208190806001815401808255809150509060018203906000526020600020016000909192909190916101000a81548173ffffffffffffffffffffffffffffffffffffffff021916908373ffffffffffffffffffffffffffffffffffffffff16021790555050600160008373ffffffffffffffffffffffffffffffffffffffff1673ffffffffffffffffffffffffffffffffffffffff1681526020019081526020016000208190806001815401808255809150509060018203906000526020600020016000909192909190916101000a81548173ffffffffffffffffffffffffffffffffffffffff021916908373ffffffffffffffffffffffffffffffffffffffff1602179055505050505050565b6060600160008373ffffffffffffffffffffffffffffffffffffffff1673ffffffffffffffffffffffffffffffffffffffff1681526020019081526020016000208054806020026020016040519081016040528092919081815260200182805480156106bb57602002820191906000526020600020905b8160009054906101000a900473ffffffffffffffffffffffffffffffffffffffff1673ffffffffffffffffffffffffffffffffffffffff1681526020019060010190808311610671575b50505050509050919050565b6000602052816000526040600020818154811015156106e257fe5b906000526020600020016000915091509054906101000a900473ffffffffffffffffffffffffffffffffffffffff1681565b60016020528160005260406000208181548110151561072f57fe5b906000526020600020016000915091509054906101000a900473ffffffffffffffffffffffffffffffffffffffff1681565b60606000808373ffffffffffffffffffffffffffffffffffffffff1673ffffffffffffffffffffffffffffffffffffffff16815260200190815260200160002080548060200260200160405190810160405280929190818152602001828054801561082157602002820191906000526020600020905b8160009054906101000a900473ffffffffffffffffffffffffffffffffffffffff1673ffffffffffffffffffffffffffffffffffffffff16815260200190600101908083116107d7575b50505050509050919050565b604051612a118061083e8339019056fe60806040523480156200001157600080fd5b5060405162002a1138038062002a11833981018060405260608110156200003757600080fd5b81019080805190602001909291908051906020019092919080516401000000008111156200006457600080fd5b828101905060208101848111156200007b57600080fd5b81518560018202830111640100000000821117156200009957600080fd5b50509291905050508060019080519060200190620000b992919062000205565b5082600260006101000a81548173ffffffffffffffffffffffffffffffffffffffff021916908373ffffffffffffffffffffffffffffffffffffffff16021790555081600360006101000a81548173ffffffffffffffffffffffffffffffffffffffff021916908373ffffffffffffffffffffffffffffffffffffffff160217905550600260009054906101000a900473ffffffffffffffffffffffffffffffffffffffff16620001696200028c565b808273ffffffffffffffffffffffffffffffffffffffff1673ffffffffffffffffffffffffffffffffffffffff168152602001915050604051809103906000f080158015620001bc573d6000803e3d6000fd5b506000806101000a81548173ffffffffffffffffffffffffffffffffffffffff021916908373ffffffffffffffffffffffffffffffffffffffff160217905550505050620002c5565b828054600181600116156101000203166002900490600052602060002090601f016020900481019282601f106200024857805160ff191683800117855562000279565b8280016001018555821562000279579182015b82811115620002785782518255916020019190600101906200025b565b5b5090506200028891906200029d565b5090565b60405161116a80620018a783390190565b620002c291905b80821115620002be576000816000905550600101620002a4565b5090565b90565b6115d280620002d56000396000f3fe6080604052600436106100fa576000357c010000000000000000000000000000000000000000000000000000000090048063aa8c217c1161009c578063cfea9c6211610076578063cfea9c62146103a4578063d86866e4146103e2578063e9c9714c1461041f578063fbbf93a014610436576100fa565b8063aa8c217c146102c4578063ba446ae9146102ef578063c47f00271461031e576100fa565b8063271f88b4116100d8578063271f88b4146101fd578063323a5e0b146102385780637150d8ae146102635780638d68cf59146102ba576100fa565b806306fdde03146100ff57806308551a531461018f5780630f44c0e1146101e6575b600080fd5b34801561010b57600080fd5b5061011461055a565b6040518080602001828103825283818151815260200191508051906020019080838360005b83811015610154578082015181840152602081019050610139565b50505050905090810190601f1680156101815780820380516001836020036101000a031916815260200191505b509250505060405180910390f35b34801561019b57600080fd5b506101a46105f8565b604051808273ffffffffffffffffffffffffffffffffffffffff1673ffffffffffffffffffffffffffffffffffffffff16815260200191505060405180910390f35b3480156101f257600080fd5b506101fb61061e565b005b34801561020957600080fd5b506102366004803603602081101561022057600080fd5b810190808035906020019092919050505061088d565b005b34801561024457600080fd5b5061024d61095c565b6040518082815260200191505060405180910390f35b34801561026f57600080fd5b50610278610a7a565b604051808273ffffffffffffffffffffffffffffffffffffffff1673ffffffffffffffffffffffffffffffffffffffff16815260200191505060405180910390f35b6102c2610aa0565b005b3480156102d057600080fd5b506102d9610c6d565b6040518082815260200191505060405180910390f35b3480156102fb57600080fd5b50610304610c73565b604051808215151515815260200191505060405180910390f35b34801561032a57600080fd5b506103a26004803603602081101561034157600080fd5b810190808035906020019064010000000081111561035e57600080fd5b82018360208201111561037057600080fd5b8035906020019184600183028401116401000000008311171561039257600080fd5b9091929391929390505050610c86565b005b3480156103b057600080fd5b506103e0600480360360208110156103c757600080fd5b81019080803560ff169060200190929190505050610d61565b005b3480156103ee57600080fd5b5061041d6004803603602081101561040557600080fd5b81019080803515159060200190929190505050610fb9565b005b34801561042b57600080fd5b5061043461109b565b005b34801561044257600080fd5b5061044b6112ad565b60405180806020018873ffffffffffffffffffffffffffffffffffffffff1673ffffffffffffffffffffffffffffffffffffffff1681526020018773ffffffffffffffffffffffffffffffffffffffff1673ffffffffffffffffffffffffffffffffffffffff168152602001868152602001858152602001841515151581526020018360028111156104d957fe5b60ff168152602001828103825289818151815260200191508051906020019080838360005b838110156105195780820151818401526020810190506104fe565b50505050905090810190601f1680156105465780820380516001836020036101000a031916815260200191505b509850505050505050505060405180910390f35b60018054600181600116156101000203166002900480601f0160208091040260200160405190810160405280929190818152602001828054600181600116156101000203166002900480156105f05780601f106105c5576101008083540402835291602001916105f0565b820191906000526020600020905b8154815290600101906020018083116105d357829003601f168201915b505050505081565b600260009054906101000a900473ffffffffffffffffffffffffffffffffffffffff1681565b600260009054906101000a900473ffffffffffffffffffffffffffffffffffffffff1673ffffffffffffffffffffffffffffffffffffffff163373ffffffffffffffffffffffffffffffffffffffff161415156106e3576040517f08c379a00000000000000000000000000000000000000000000000000000000081526004018080602001828103825260168152602001807f55736572206973206e6f74207468652053656c6c65720000000000000000000081525060200191505060405180910390fd5b60011515600560009054906101000a900460ff16151514151561070557600080fd5b6001600281111561071257fe5b600560019054906101000a900460ff16600281111561072d57fe5b14151561073957600080fd5b60045461074461095c565b1015151561075157600080fd5b6000809054906101000a900473ffffffffffffffffffffffffffffffffffffffff1673ffffffffffffffffffffffffffffffffffffffff166343d726d66040518163ffffffff167c0100000000000000000000000000000000000000000000000000000000028152600401600060405180830381600087803b1580156107d657600080fd5b505af11580156107ea573d6000803e3d6000fd5b505050506000809054906101000a900473ffffffffffffffffffffffffffffffffffffffff1673ffffffffffffffffffffffffffffffffffffffff16639af6549a6040518163ffffffff167c0100000000000000000000000000000000000000000000000000000000028152600401600060405180830381600087803b15801561087357600080fd5b505af1158015610887573d6000803e3d6000fd5b50505050565b600260009054906101000a900473ffffffffffffffffffffffffffffffffffffffff1673ffffffffffffffffffffffffffffffffffffffff163373ffffffffffffffffffffffffffffffffffffffff16141515610952576040517f08c379a00000000000000000000000000000000000000000000000000000000081526004018080602001828103825260168152602001807f55736572206973206e6f74207468652053656c6c65720000000000000000000081525060200191505060405180910390fd5b8060048190555050565b60008060009054906101000a900473ffffffffffffffffffffffffffffffffffffffff1673ffffffffffffffffffffffffffffffffffffffff1663e3a9db1a600360009054906101000a900473ffffffffffffffffffffffffffffffffffffffff166040518263ffffffff167c0100000000000000000000000000000000000000000000000000000000028152600401808273ffffffffffffffffffffffffffffffffffffffff1673ffffffffffffffffffffffffffffffffffffffff16815260200191505060206040518083038186803b158015610a3a57600080fd5b505afa158015610a4e573d6000803e3d6000fd5b505050506040513d6020811015610a6457600080fd5b8101908080519060200190929190505050905090565b600360009054906101000a900473ffffffffffffffffffffffffffffffffffffffff1681565b600360009054906101000a900473ffffffffffffffffffffffffffffffffffffffff1673ffffffffffffffffffffffffffffffffffffffff163373ffffffffffffffffffffffffffffffffffffffff16141515610b65576040517f08c379a00000000000000000000000000000000000000000000000000000000081526004018080602001828103825260158152602001807f55736572206973206e6f7420746865204275796572000000000000000000000081525060200191505060405180910390fd5b600034111515610b7457600080fd5b6000809054906101000a900473ffffffffffffffffffffffffffffffffffffffff1673ffffffffffffffffffffffffffffffffffffffff1663f340fa0134600360009054906101000a900473ffffffffffffffffffffffffffffffffffffffff166040518363ffffffff167c0100000000000000000000000000000000000000000000000000000000028152600401808273ffffffffffffffffffffffffffffffffffffffff1673ffffffffffffffffffffffffffffffffffffffff1681526020019150506000604051808303818588803b158015610c5257600080fd5b505af1158015610c66573d6000803e3d6000fd5b5050505050565b60045481565b600560009054906101000a900460ff1681565b600260009054906101000a900473ffffffffffffffffffffffffffffffffffffffff1673ffffffffffffffffffffffffffffffffffffffff163373ffffffffffffffffffffffffffffffffffffffff16141515610d4b576040517f08c379a00000000000000000000000000000000000000000000000000000000081526004018080602001828103825260168152602001807f55736572206973206e6f74207468652053656c6c65720000000000000000000081525060200191505060405180910390fd5b818160019190610d5c929190611501565b505050565b600360009054906101000a900473ffffffffffffffffffffffffffffffffffffffff1673ffffffffffffffffffffffffffffffffffffffff163373ffffffffffffffffffffffffffffffffffffffff16141515610e26576040517f08c379a00000000000000000000000000000000000000000000000000000000081526004018080602001828103825260158152602001807f55736572206973206e6f7420746865204275796572000000000000000000000081525060200191505060405180910390fd5b80600560016101000a81548160ff02191690836002811115610e4457fe5b0217905550600280811115610e5557fe5b600560019054906101000a900460ff166002811115610e7057fe5b1415610f18576000809054906101000a900473ffffffffffffffffffffffffffffffffffffffff1673ffffffffffffffffffffffffffffffffffffffff16638c52dc416040518163ffffffff167c0100000000000000000000000000000000000000000000000000000000028152600401600060405180830381600087803b158015610efb57600080fd5b505af1158015610f0f573d6000803e3d6000fd5b50505050610fb6565b6000809054906101000a900473ffffffffffffffffffffffffffffffffffffffff1673ffffffffffffffffffffffffffffffffffffffff1663f48c46336040518163ffffffff167c0100000000000000000000000000000000000000000000000000000000028152600401600060405180830381600087803b158015610f9d57600080fd5b505af1158015610fb1573d6000803e3d6000fd5b505050505b50565b600260009054906101000a900473ffffffffffffffffffffffffffffffffffffffff1673ffffffffffffffffffffffffffffffffffffffff163373ffffffffffffffffffffffffffffffffffffffff1614151561107e576040517f08c379a00000000000000000000000000000000000000000000000000000000081526004018080602001828103825260168152602001807f55736572206973206e6f74207468652053656c6c65720000000000000000000081525060200191505060405180910390fd5b80600560006101000a81548160ff02191690831515021790555050565b600360009054906101000a900473ffffffffffffffffffffffffffffffffffffffff1673ffffffffffffffffffffffffffffffffffffffff163373ffffffffffffffffffffffffffffffffffffffff16141515611160576040517f08c379a00000000000000000000000000000000000000000000000000000000081526004018080602001828103825260158152602001807f55736572206973206e6f7420746865204275796572000000000000000000000081525060200191505060405180910390fd5b60011515600560009054906101000a900460ff16151514151561118257600080fd5b60028081111561118e57fe5b600560019054906101000a900460ff1660028111156111a957fe5b1415156111b557600080fd5b6000809054906101000a900473ffffffffffffffffffffffffffffffffffffffff1673ffffffffffffffffffffffffffffffffffffffff166351cff8d9600360009054906101000a900473ffffffffffffffffffffffffffffffffffffffff166040518263ffffffff167c0100000000000000000000000000000000000000000000000000000000028152600401808273ffffffffffffffffffffffffffffffffffffffff1673ffffffffffffffffffffffffffffffffffffffff168152602001915050600060405180830381600087803b15801561129357600080fd5b505af11580156112a7573d6000803e3d6000fd5b50505050565b6060600080600080600080600260009054906101000a900473ffffffffffffffffffffffffffffffffffffffff1673ffffffffffffffffffffffffffffffffffffffff163373ffffffffffffffffffffffffffffffffffffffff1614806113615750600360009054906101000a900473ffffffffffffffffffffffffffffffffffffffff1673ffffffffffffffffffffffffffffffffffffffff163373ffffffffffffffffffffffffffffffffffffffff16145b15156113d5576040517f08c379a000000000000000000000000000000000000000000000000000000000815260040180806020018281038252601f8152602001807f55736572206973206e6f74207468652053656c6c6572206f722042757965720081525060200191505060405180910390fd5b6001600260009054906101000a900473ffffffffffffffffffffffffffffffffffffffff16600360009054906101000a900473ffffffffffffffffffffffffffffffffffffffff1660045461142861095c565b600560009054906101000a900460ff16600560019054906101000a900460ff16868054600181600116156101000203166002900480601f0160208091040260200160405190810160405280929190818152602001828054600181600116156101000203166002900480156114dd5780601f106114b2576101008083540402835291602001916114dd565b820191906000526020600020905b8154815290600101906020018083116114c057829003601f168201915b50505050509650859550849450965096509650965096509650965090919293949596565b828054600181600116156101000203166002900490600052602060002090601f016020900481019282601f1061154257803560ff1916838001178555611570565b82800160010185558215611570579182015b8281111561156f578235825591602001919060010190611554565b5b50905061157d9190611581565b5090565b6115a391905b8082111561159f576000816000905550600101611587565b5090565b9056fea165627a7a723058200c59c3ca48dd613d3c7f78b4c32504990ffb4c90a49133a4c730e02570431ea10029608060405234801561001057600080fd5b5060405160208061116a8339810180604052602081101561003057600080fd5b8101908080519060200190929190505050336000806101000a81548173ffffffffffffffffffffffffffffffffffffffff021916908373ffffffffffffffffffffffffffffffffffffffff1602179055507f4101e71e974f68df5e9730cc223280b41654676bbb052cdcc735c3337e64d2d96000809054906101000a900473ffffffffffffffffffffffffffffffffffffffff16604051808273ffffffffffffffffffffffffffffffffffffffff1673ffffffffffffffffffffffffffffffffffffffff16815260200191505060405180910390a1600073ffffffffffffffffffffffffffffffffffffffff168173ffffffffffffffffffffffffffffffffffffffff161415151561018d576040517f08c379a000000000000000000000000000000000000000000000000000000000815260040180806020018281038252602d81526020018061113d602d913960400191505060405180910390fd5b80600260016101000a81548173ffffffffffffffffffffffffffffffffffffffff021916908373ffffffffffffffffffffffffffffffffffffffff1602179055506000600260006101000a81548160ff021916908360028111156101ed57fe5b021790555050610f3b806102026000396000f3fe6080604052600436106100c4576000357c0100000000000000000000000000000000000000000000000000000000900480639af6549a116100815780639af6549a14610259578063c19d93fb14610270578063c6dbdf61146102a9578063e3a9db1a14610300578063f340fa0114610365578063f48c4633146103a9576100c4565b80632348238c146100c957806338af3eed1461011a57806343d726d61461017157806351cff8d914610188578063685ca194146101d95780638c52dc4114610242575b600080fd5b3480156100d557600080fd5b50610118600480360360208110156100ec57600080fd5b81019080803573ffffffffffffffffffffffffffffffffffffffff1690602001909291905050506103c0565b005b34801561012657600080fd5b5061012f61051e565b604051808273ffffffffffffffffffffffffffffffffffffffff1673ffffffffffffffffffffffffffffffffffffffff16815260200191505060405180910390f35b34801561017d57600080fd5b50610186610548565b005b34801561019457600080fd5b506101d7600480360360208110156101ab57600080fd5b81019080803573ffffffffffffffffffffffffffffffffffffffff169060200190929190505050610674565b005b3480156101e557600080fd5b50610228600480360360208110156101fc57600080fd5b81019080803573ffffffffffffffffffffffffffffffffffffffff169060200190929190505050610694565b604051808215151515815260200191505060405180910390f35b34801561024e57600080fd5b506102576106c6565b005b34801561026557600080fd5b5061026e6107f3565b005b34801561027c57600080fd5b506102856108f4565b6040518082600281111561029557fe5b60ff16815260200191505060405180910390f35b3480156102b557600080fd5b506102be61090b565b604051808273ffffffffffffffffffffffffffffffffffffffff1673ffffffffffffffffffffffffffffffffffffffff16815260200191505060405180910390f35b34801561030c57600080fd5b5061034f6004803603602081101561032357600080fd5b81019080803573ffffffffffffffffffffffffffffffffffffffff169060200190929190505050610934565b6040518082815260200191505060405180910390f35b6103a76004803603602081101561037b57600080fd5b81019080803573ffffffffffffffffffffffffffffffffffffffff16906020019092919050505061097d565b005b3480156103b557600080fd5b506103be610a09565b005b6000809054906101000a900473ffffffffffffffffffffffffffffffffffffffff1673ffffffffffffffffffffffffffffffffffffffff163373ffffffffffffffffffffffffffffffffffffffff1614151561041b57600080fd5b600073ffffffffffffffffffffffffffffffffffffffff168173ffffffffffffffffffffffffffffffffffffffff161415151561045757600080fd5b806000806101000a81548173ffffffffffffffffffffffffffffffffffffffff021916908373ffffffffffffffffffffffffffffffffffffffff1602179055507f4101e71e974f68df5e9730cc223280b41654676bbb052cdcc735c3337e64d2d96000809054906101000a900473ffffffffffffffffffffffffffffffffffffffff16604051808273ffffffffffffffffffffffffffffffffffffffff1673ffffffffffffffffffffffffffffffffffffffff16815260200191505060405180910390a150565b6000600260019054906101000a900473ffffffffffffffffffffffffffffffffffffffff16905090565b6000809054906101000a900473ffffffffffffffffffffffffffffffffffffffff1673ffffffffffffffffffffffffffffffffffffffff163373ffffffffffffffffffffffffffffffffffffffff161415156105a357600080fd5b600060028111156105b057fe5b600260009054906101000a900460ff1660028111156105cb57fe5b141515610623576040517f08c379a0000000000000000000000000000000000000000000000000000000008152600401808060200182810382526029815260200180610eb56029913960400191505060405180910390fd5b60028060006101000a81548160ff0219169083600281111561064157fe5b02179055507f088672c3a6e342f7cd94a65ba63b79df24a8973927b4d05d803c44bbf787d12f60405160405180910390a1565b61067d81610694565b151561068857600080fd5b61069181610b36565b50565b6000600160028111156106a357fe5b600260009054906101000a900460ff1660028111156106be57fe5b149050919050565b6000809054906101000a900473ffffffffffffffffffffffffffffffffffffffff1673ffffffffffffffffffffffffffffffffffffffff163373ffffffffffffffffffffffffffffffffffffffff1614151561072157600080fd5b6000600281111561072e57fe5b600260009054906101000a900460ff16600281111561074957fe5b1415156107a1576040517f08c379a0000000000000000000000000000000000000000000000000000000008152600401808060200182810382526032815260200180610ede6032913960400191505060405180910390fd5b6001600260006101000a81548160ff021916908360028111156107c057fe5b02179055507f599d8e5a83cffb867d051598c4d70e805d59802d8081c1c7d6dffc5b6aca2b8960405160405180910390a1565b6002808111156107ff57fe5b600260009054906101000a900460ff16600281111561081a57fe5b141515610872576040517f08c379a0000000000000000000000000000000000000000000000000000000008152600401808060200182810382526038815260200180610e1c6038913960400191505060405180910390fd5b600260019054906101000a900473ffffffffffffffffffffffffffffffffffffffff1673ffffffffffffffffffffffffffffffffffffffff166108fc3073ffffffffffffffffffffffffffffffffffffffff16319081150290604051600060405180830381858888f193505050501580156108f1573d6000803e3d6000fd5b50565b6000600260009054906101000a900460ff16905090565b60008060009054906101000a900473ffffffffffffffffffffffffffffffffffffffff16905090565b6000600160008373ffffffffffffffffffffffffffffffffffffffff1673ffffffffffffffffffffffffffffffffffffffff168152602001908152602001600020549050919050565b6000600281111561098a57fe5b600260009054906101000a900460ff1660028111156109a557fe5b1415156109fd576040517f08c379a000000000000000000000000000000000000000000000000000000000815260040180806020018281038252602b815260200180610e8a602b913960400191505060405180910390fd5b610a0681610cb3565b50565b6000809054906101000a900473ffffffffffffffffffffffffffffffffffffffff1673ffffffffffffffffffffffffffffffffffffffff163373ffffffffffffffffffffffffffffffffffffffff16141515610a6457600080fd5b60016002811115610a7157fe5b600260009054906101000a900460ff166002811115610a8c57fe5b141515610ae4576040517f08c379a0000000000000000000000000000000000000000000000000000000008152600401808060200182810382526036815260200180610e546036913960400191505060405180910390fd5b6000600260006101000a81548160ff02191690836002811115610b0357fe5b02179055507f6f9f51c776fa2eae83efa23a12ec950301ebb8667b6ec69e745e047e340f327c60405160405180910390a1565b6000809054906101000a900473ffffffffffffffffffffffffffffffffffffffff1673ffffffffffffffffffffffffffffffffffffffff163373ffffffffffffffffffffffffffffffffffffffff16141515610b9157600080fd5b6000600160008373ffffffffffffffffffffffffffffffffffffffff1673ffffffffffffffffffffffffffffffffffffffff1681526020019081526020016000205490506000600160008473ffffffffffffffffffffffffffffffffffffffff1673ffffffffffffffffffffffffffffffffffffffff168152602001908152602001600020819055508173ffffffffffffffffffffffffffffffffffffffff166108fc829081150290604051600060405180830381858888f19350505050158015610c60573d6000803e3d6000fd5b508173ffffffffffffffffffffffffffffffffffffffff167f7084f5476618d8e60b11ef0d7d3f06914655adb8793e28ff7f018d4c76d505d5826040518082815260200191505060405180910390a25050565b6000809054906101000a900473ffffffffffffffffffffffffffffffffffffffff1673ffffffffffffffffffffffffffffffffffffffff163373ffffffffffffffffffffffffffffffffffffffff16141515610d0e57600080fd5b6000349050610d6581600160008573ffffffffffffffffffffffffffffffffffffffff1673ffffffffffffffffffffffffffffffffffffffff16815260200190815260200160002054610dfa90919063ffffffff16565b600160008473ffffffffffffffffffffffffffffffffffffffff1673ffffffffffffffffffffffffffffffffffffffff168152602001908152602001600020819055508173ffffffffffffffffffffffffffffffffffffffff167f2da466a7b24304f47e87fa2e1e5a81b9831ce54fec19055ce277ca2f39ba42c4826040518082815260200191505060405180910390a25050565b6000808284019050838110151515610e1157600080fd5b809150509291505056fe526566756e64457363726f773a2062656e65666963696172792063616e206f6e6c79207769746864726177207768696c6520636c6f736564526566756e64457363726f773a2063616e206f6e6c792064697361626c6520726566756e6473207768696c6520726566756e64696e67526566756e64457363726f773a2063616e206f6e6c79206465706f736974207768696c6520616374697665526566756e64457363726f773a2063616e206f6e6c7920636c6f7365207768696c6520616374697665526566756e64457363726f773a2063616e206f6e6c7920656e61626c6520726566756e6473207768696c6520616374697665a165627a7a7230582025932973ee33a9428d17769819b59a3e79eb72c42b7d0787a599e6c3b029f7c90029526566756e64457363726f773a2062656e656669636961727920697320746865207a65726f206164647265737353656c6c657220616e642042757965722063616e6e6f74206265207468652073616d652061646472657373a165627a7a723058207508d6dd9192679f45c20d1e98abfc8d8b59438145060d87307b055dbf0cd5df0029",
  "source": "pragma solidity ^0.5.2;\n\nimport './ProductContract.sol';\n\ncontract ContractFactory {\n    mapping(address => address[]) public sellerToContracts;\n    mapping(address => address[]) public buyerToContracts;\n\n    function createContract(string calldata name, address payable buyer)\n        external\n    {\n        require(msg.sender != buyer, 'Seller and Buyer cannot be the same address');\n\n        ProductContract pcontract = new ProductContract(\n            msg.sender,\n            buyer,\n            name\n        );\n        sellerToContracts[msg.sender].push(address(pcontract));\n        buyerToContracts[buyer].push(address(pcontract));\n    }\n\n    function getSellerContracts(address seller)\n        external\n        view\n        returns (address[] memory)\n    {\n        return sellerToContracts[seller];\n    }\n\n    function getBuyerContracts(address buyer)\n        external\n        view\n        returns (address[] memory)\n    {\n        return buyerToContracts[buyer];\n    }\n}\n",
  "sourcePath": "/Users/cejas/hacketon052019/consensus-2019-hackathon/contracts/ContractFactory.sol",
  "compiler": {
    "name": "solc",
    "version": "0.5.2+commit.1df8f40c.Emscripten.clang"
  },
  "schemaVersion": "3.0.9",
  "updatedAt": "2019-05-12T14:49:50.271Z",
  "devdoc": {
    "methods": {}
  },
  "userdoc": {
    "methods": {}
  }
}