{
  "contractName": "ProductContract",
  "abi": [
    {
      "constant": true,
      "inputs": [],
      "name": "name",
      "outputs": [
        {
          "name": "",
          "type": "string"
        }
      ],
      "payable": false,
      "stateMutability": "view",
      "type": "function",
      "signature": "0x06fdde03"
    },
    {
      "constant": true,
      "inputs": [],
      "name": "seller",
      "outputs": [
        {
          "name": "",
          "type": "address"
        }
      ],
      "payable": false,
      "stateMutability": "view",
      "type": "function",
      "signature": "0x08551a53"
    },
    {
      "constant": true,
      "inputs": [],
      "name": "buyer",
      "outputs": [
        {
          "name": "",
          "type": "address"
        }
      ],
      "payable": false,
      "stateMutability": "view",
      "type": "function",
      "signature": "0x7150d8ae"
    },
    {
      "constant": true,
      "inputs": [],
      "name": "amount",
      "outputs": [
        {
          "name": "",
          "type": "uint256"
        }
      ],
      "payable": false,
      "stateMutability": "view",
      "type": "function",
      "signature": "0xaa8c217c"
    },
    {
      "constant": true,
      "inputs": [],
      "name": "shipped",
      "outputs": [
        {
          "name": "",
          "type": "bool"
        }
      ],
      "payable": false,
      "stateMutability": "view",
      "type": "function",
      "signature": "0xba446ae9"
    },
    {
      "inputs": [
        {
          "name": "_seller",
          "type": "address"
        },
        {
          "name": "_buyer",
          "type": "address"
        },
        {
          "name": "_name",
          "type": "string"
        }
      ],
      "payable": false,
      "stateMutability": "nonpayable",
      "type": "constructor",
      "signature": "constructor"
    },
    {
      "constant": false,
      "inputs": [],
      "name": "sendFunds",
      "outputs": [],
      "payable": true,
      "stateMutability": "payable",
      "type": "function",
      "signature": "0x8d68cf59"
    },
    {
      "constant": false,
      "inputs": [
        {
          "name": "_name",
          "type": "string"
        }
      ],
      "name": "setName",
      "outputs": [],
      "payable": false,
      "stateMutability": "nonpayable",
      "type": "function",
      "signature": "0xcfea9c62"
    },
    {
      "constant": false,
      "inputs": [
        {
          "name": "_amount",
          "type": "uint256"
        }
      ],
      "name": "setAmount",
      "outputs": [],
      "payable": false,
      "stateMutability": "nonpayable",
      "type": "function",
      "signature": "0xd86866e4"
    },
    {
      "constant": false,
      "inputs": [
        {
          "name": "_delivered",
          "type": "uint8"
        }
      ],
      "name": "setDelivered",
      "outputs": [],
      "payable": false,
      "stateMutability": "nonpayable",
      "type": "function",
      "signature": "0xa3f09ad6"
    },
    {
      "constant": false,
      "inputs": [
        {
          "name": "_shipped",
          "type": "bool"
        }
      ],
      "name": "setShipped",
      "outputs": [],
      "payable": false,
      "stateMutability": "nonpayable",
      "type": "function",
      "signature": "0x0f44c0e1"
    },
    {
      "constant": false,
      "inputs": [
        {
          "name": "_buyer",
          "type": "address"
        }
      ],
      "name": "setBuyer",
      "outputs": [],
      "payable": true,
      "stateMutability": "payable",
      "type": "function",
      "signature": "0xe9c9714c"
    },
    {
      "constant": false,
      "inputs": [],
      "name": "withdrawToSeller",
      "outputs": [
        {
          "name": "",
          "type": "uint256"
        }
      ],
      "payable": false,
      "stateMutability": "nonpayable",
      "type": "function",
      "signature": "0x3832c96d"
    },
    {
      "constant": false,
      "inputs": [],
      "name": "withdrawToBuyer",
      "outputs": [
        {
          "name": "",
          "type": "uint256"
        },
        {
          "name": "",
          "type": "address"
        },
        {
          "name": "",
          "type": "address"
        },
        {
          "name": "",
          "type": "uint256"
        },
        {
          "name": "",
          "type": "bool"
        },
        {
          "name": "",
          "type": "uint8"
        }
      ],
      "payable": false,
      "stateMutability": "nonpayable",
      "type": "function",
      "signature": "0xfbbf93a0"
    },
    {
      "constant": true,
      "inputs": [],
      "name": "depoOf",
      "outputs": [
        {
          "name": "",
          "type": "uint256"
        },
        {
          "name": "",
          "type": "address"
        },
        {
          "name": "",
          "type": "address"
        },
        {
          "name": "",
          "type": "uint256"
        },
        {
          "name": "",
          "type": "bool"
        },
        {
          "name": "",
          "type": "uint8"
        }
      ],
      "payable": false,
      "stateMutability": "view",
      "type": "function"
    },
    {
      "constant": true,
      "inputs": [],
      "name": "getDetails",
      "outputs": [
        {
          "name": "",
          "type": "string"
        },
        {
          "name": "",
          "type": "address"
        },
        {
          "name": "",
          "type": "address"
        },
        {
          "name": "",
          "type": "uint256"
        },
        {
          "name": "",
          "type": "bool"
        },
        {
          "name": "",
          "type": "uint8"
        }
      ],
      "payable": false,
      "stateMutability": "view",
      "type": "function"
    }
  ],
  "bytecode": "0x60806040523480156200001157600080fd5b5060405162002bc338038062002bc3833981018060405260608110156200003757600080fd5b81019080805190602001909291908051906020019092919080516401000000008111156200006457600080fd5b828101905060208101848111156200007b57600080fd5b81518560018202830111640100000000821117156200009957600080fd5b50509291905050508060019080519060200190620000b992919062000205565b5082600260006101000a81548173ffffffffffffffffffffffffffffffffffffffff021916908373ffffffffffffffffffffffffffffffffffffffff16021790555081600360006101000a81548173ffffffffffffffffffffffffffffffffffffffff021916908373ffffffffffffffffffffffffffffffffffffffff160217905550600260009054906101000a900473ffffffffffffffffffffffffffffffffffffffff16620001696200028c565b808273ffffffffffffffffffffffffffffffffffffffff1673ffffffffffffffffffffffffffffffffffffffff168152602001915050604051809103906000f080158015620001bc573d6000803e3d6000fd5b506000806101000a81548173ffffffffffffffffffffffffffffffffffffffff021916908373ffffffffffffffffffffffffffffffffffffffff160217905550505050620002c5565b828054600181600116156101000203166002900490600052602060002090601f016020900481019282601f106200024857805160ff191683800117855562000279565b8280016001018555821562000279579182015b82811115620002785782518255916020019190600101906200025b565b5b5090506200028891906200029d565b5090565b60405161116a8062001a5983390190565b620002c291905b80821115620002be576000816000905550600101620002a4565b5090565b90565b61178480620002d56000396000f3fe608060405260043610610105576000357c010000000000000000000000000000000000000000000000000000000090048063a3f09ad6116100a7578063cfea9c6211610076578063cfea9c62146103f3578063d86866e414610431578063e9c9714c1461046e578063fbbf93a01461048557610105565b8063a3f09ad6146102cf578063aa8c217c14610313578063ba446ae91461033e578063c47f00271461036d57610105565b8063271f88b4116100e3578063271f88b4146102085780633832c96d146102435780637150d8ae1461026e5780638d68cf59146102c557610105565b806306fdde031461010a57806308551a531461019a5780630f44c0e1146101f1575b600080fd5b34801561011657600080fd5b5061011f6105a2565b6040518080602001828103825283818151815260200191508051906020019080838360005b8381101561015f578082015181840152602081019050610144565b50505050905090810190601f16801561018c5780820380516001836020036101000a031916815260200191505b509250505060405180910390f35b3480156101a657600080fd5b506101af610640565b604051808273ffffffffffffffffffffffffffffffffffffffff1673ffffffffffffffffffffffffffffffffffffffff16815260200191505060405180910390f35b3480156101fd57600080fd5b50610206610666565b005b34801561021457600080fd5b506102416004803603602081101561022b57600080fd5b81019080803590602001909291905050506108d5565b005b34801561024f57600080fd5b506102586109a4565b6040518082815260200191505060405180910390f35b34801561027a57600080fd5b50610283610ac2565b604051808273ffffffffffffffffffffffffffffffffffffffff1673ffffffffffffffffffffffffffffffffffffffff16815260200191505060405180910390f35b6102cd610ae8565b005b610311600480360360208110156102e557600080fd5b81019080803573ffffffffffffffffffffffffffffffffffffffff169060200190929190505050610cb5565b005b34801561031f57600080fd5b50610328610dbe565b6040518082815260200191505060405180910390f35b34801561034a57600080fd5b50610353610dc4565b604051808215151515815260200191505060405180910390f35b34801561037957600080fd5b506103f16004803603602081101561039057600080fd5b81019080803590602001906401000000008111156103ad57600080fd5b8201836020820111156103bf57600080fd5b803590602001918460018302840111640100000000831117156103e157600080fd5b9091929391929390505050610dd7565b005b3480156103ff57600080fd5b5061042f6004803603602081101561041657600080fd5b81019080803560ff169060200190929190505050610eb2565b005b34801561043d57600080fd5b5061046c6004803603602081101561045457600080fd5b8101908080351515906020019092919050505061110a565b005b34801561047a57600080fd5b506104836111ec565b005b34801561049157600080fd5b5061049a6113fe565b60405180806020018773ffffffffffffffffffffffffffffffffffffffff1673ffffffffffffffffffffffffffffffffffffffff1681526020018673ffffffffffffffffffffffffffffffffffffffff1673ffffffffffffffffffffffffffffffffffffffff1681526020018581526020018415151515815260200183600281111561052257fe5b60ff168152602001828103825288818151815260200191508051906020019080838360005b83811015610562578082015181840152602081019050610547565b50505050905090810190601f16801561058f5780820380516001836020036101000a031916815260200191505b5097505050505050505060405180910390f35b60018054600181600116156101000203166002900480601f0160208091040260200160405190810160405280929190818152602001828054600181600116156101000203166002900480156106385780601f1061060d57610100808354040283529160200191610638565b820191906000526020600020905b81548152906001019060200180831161061b57829003601f168201915b505050505081565b600260009054906101000a900473ffffffffffffffffffffffffffffffffffffffff1681565b600260009054906101000a900473ffffffffffffffffffffffffffffffffffffffff1673ffffffffffffffffffffffffffffffffffffffff163373ffffffffffffffffffffffffffffffffffffffff1614151561072b576040517f08c379a00000000000000000000000000000000000000000000000000000000081526004018080602001828103825260168152602001807f55736572206973206e6f74207468652053656c6c65720000000000000000000081525060200191505060405180910390fd5b60011515600560009054906101000a900460ff16151514151561074d57600080fd5b6001600281111561075a57fe5b600560019054906101000a900460ff16600281111561077557fe5b14151561078157600080fd5b60045461078c6109a4565b1015151561079957600080fd5b6000809054906101000a900473ffffffffffffffffffffffffffffffffffffffff1673ffffffffffffffffffffffffffffffffffffffff166343d726d66040518163ffffffff167c0100000000000000000000000000000000000000000000000000000000028152600401600060405180830381600087803b15801561081e57600080fd5b505af1158015610832573d6000803e3d6000fd5b505050506000809054906101000a900473ffffffffffffffffffffffffffffffffffffffff1673ffffffffffffffffffffffffffffffffffffffff16639af6549a6040518163ffffffff167c0100000000000000000000000000000000000000000000000000000000028152600401600060405180830381600087803b1580156108bb57600080fd5b505af11580156108cf573d6000803e3d6000fd5b50505050565b600260009054906101000a900473ffffffffffffffffffffffffffffffffffffffff1673ffffffffffffffffffffffffffffffffffffffff163373ffffffffffffffffffffffffffffffffffffffff1614151561099a576040517f08c379a00000000000000000000000000000000000000000000000000000000081526004018080602001828103825260168152602001807f55736572206973206e6f74207468652053656c6c65720000000000000000000081525060200191505060405180910390fd5b8060048190555050565b60008060009054906101000a900473ffffffffffffffffffffffffffffffffffffffff1673ffffffffffffffffffffffffffffffffffffffff1663e3a9db1a600360009054906101000a900473ffffffffffffffffffffffffffffffffffffffff166040518263ffffffff167c0100000000000000000000000000000000000000000000000000000000028152600401808273ffffffffffffffffffffffffffffffffffffffff1673ffffffffffffffffffffffffffffffffffffffff16815260200191505060206040518083038186803b158015610a8257600080fd5b505afa158015610a96573d6000803e3d6000fd5b505050506040513d6020811015610aac57600080fd5b8101908080519060200190929190505050905090565b600360009054906101000a900473ffffffffffffffffffffffffffffffffffffffff1681565b600360009054906101000a900473ffffffffffffffffffffffffffffffffffffffff1673ffffffffffffffffffffffffffffffffffffffff163373ffffffffffffffffffffffffffffffffffffffff16141515610bad576040517f08c379a00000000000000000000000000000000000000000000000000000000081526004018080602001828103825260158152602001807f55736572206973206e6f7420746865204275796572000000000000000000000081525060200191505060405180910390fd5b600034111515610bbc57600080fd5b6000809054906101000a900473ffffffffffffffffffffffffffffffffffffffff1673ffffffffffffffffffffffffffffffffffffffff1663f340fa0134600360009054906101000a900473ffffffffffffffffffffffffffffffffffffffff166040518363ffffffff167c0100000000000000000000000000000000000000000000000000000000028152600401808273ffffffffffffffffffffffffffffffffffffffff1673ffffffffffffffffffffffffffffffffffffffff1681526020019150506000604051808303818588803b158015610c9a57600080fd5b505af1158015610cae573d6000803e3d6000fd5b5050505050565b600260009054906101000a900473ffffffffffffffffffffffffffffffffffffffff1673ffffffffffffffffffffffffffffffffffffffff163373ffffffffffffffffffffffffffffffffffffffff16141515610d7a576040517f08c379a00000000000000000000000000000000000000000000000000000000081526004018080602001828103825260168152602001807f55736572206973206e6f74207468652053656c6c65720000000000000000000081525060200191505060405180910390fd5b80600360006101000a81548173ffffffffffffffffffffffffffffffffffffffff021916908373ffffffffffffffffffffffffffffffffffffffff16021790555050565b60045481565b600560009054906101000a900460ff1681565b600260009054906101000a900473ffffffffffffffffffffffffffffffffffffffff1673ffffffffffffffffffffffffffffffffffffffff163373ffffffffffffffffffffffffffffffffffffffff16141515610e9c576040517f08c379a00000000000000000000000000000000000000000000000000000000081526004018080602001828103825260168152602001807f55736572206973206e6f74207468652053656c6c65720000000000000000000081525060200191505060405180910390fd5b818160019190610ead9291906116b3565b505050565b600360009054906101000a900473ffffffffffffffffffffffffffffffffffffffff1673ffffffffffffffffffffffffffffffffffffffff163373ffffffffffffffffffffffffffffffffffffffff16141515610f77576040517f08c379a00000000000000000000000000000000000000000000000000000000081526004018080602001828103825260158152602001807f55736572206973206e6f7420746865204275796572000000000000000000000081525060200191505060405180910390fd5b80600560016101000a81548160ff02191690836002811115610f9557fe5b0217905550600280811115610fa657fe5b600560019054906101000a900460ff166002811115610fc157fe5b1415611069576000809054906101000a900473ffffffffffffffffffffffffffffffffffffffff1673ffffffffffffffffffffffffffffffffffffffff16638c52dc416040518163ffffffff167c0100000000000000000000000000000000000000000000000000000000028152600401600060405180830381600087803b15801561104c57600080fd5b505af1158015611060573d6000803e3d6000fd5b50505050611107565b6000809054906101000a900473ffffffffffffffffffffffffffffffffffffffff1673ffffffffffffffffffffffffffffffffffffffff1663f48c46336040518163ffffffff167c0100000000000000000000000000000000000000000000000000000000028152600401600060405180830381600087803b1580156110ee57600080fd5b505af1158015611102573d6000803e3d6000fd5b505050505b50565b600260009054906101000a900473ffffffffffffffffffffffffffffffffffffffff1673ffffffffffffffffffffffffffffffffffffffff163373ffffffffffffffffffffffffffffffffffffffff161415156111cf576040517f08c379a00000000000000000000000000000000000000000000000000000000081526004018080602001828103825260168152602001807f55736572206973206e6f74207468652053656c6c65720000000000000000000081525060200191505060405180910390fd5b80600560006101000a81548160ff02191690831515021790555050565b600360009054906101000a900473ffffffffffffffffffffffffffffffffffffffff1673ffffffffffffffffffffffffffffffffffffffff163373ffffffffffffffffffffffffffffffffffffffff161415156112b1576040517f08c379a00000000000000000000000000000000000000000000000000000000081526004018080602001828103825260158152602001807f55736572206973206e6f7420746865204275796572000000000000000000000081525060200191505060405180910390fd5b60011515600560009054906101000a900460ff1615151415156112d357600080fd5b6002808111156112df57fe5b600560019054906101000a900460ff1660028111156112fa57fe5b14151561130657600080fd5b6000809054906101000a900473ffffffffffffffffffffffffffffffffffffffff1673ffffffffffffffffffffffffffffffffffffffff166351cff8d9600360009054906101000a900473ffffffffffffffffffffffffffffffffffffffff166040518263ffffffff167c0100000000000000000000000000000000000000000000000000000000028152600401808273ffffffffffffffffffffffffffffffffffffffff1673ffffffffffffffffffffffffffffffffffffffff168152602001915050600060405180830381600087803b1580156113e457600080fd5b505af11580156113f8573d6000803e3d6000fd5b50505050565b60606000806000806000600360009054906101000a900473ffffffffffffffffffffffffffffffffffffffff1673ffffffffffffffffffffffffffffffffffffffff163373ffffffffffffffffffffffffffffffffffffffff161415156114cd576040517f08c379a00000000000000000000000000000000000000000000000000000000081526004018080602001828103825260158152602001807f55736572206973206e6f7420746865204275796572000000000000000000000081525060200191505060405180910390fd5b600260009054906101000a900473ffffffffffffffffffffffffffffffffffffffff1673ffffffffffffffffffffffffffffffffffffffff163373ffffffffffffffffffffffffffffffffffffffff16141515611592576040517f08c379a00000000000000000000000000000000000000000000000000000000081526004018080602001828103825260168152602001807f55736572206973206e6f74207468652053656c6c65720000000000000000000081525060200191505060405180910390fd5b6001600260009054906101000a900473ffffffffffffffffffffffffffffffffffffffff16600360009054906101000a900473ffffffffffffffffffffffffffffffffffffffff16600454600560009054906101000a900460ff16600560019054906101000a900460ff16858054600181600116156101000203166002900480601f0160208091040260200160405190810160405280929190818152602001828054600181600116156101000203166002900480156116925780601f1061166757610100808354040283529160200191611692565b820191906000526020600020905b81548152906001019060200180831161167557829003601f168201915b50505050509550849450839350955095509550955095509550909192939495565b828054600181600116156101000203166002900490600052602060002090601f016020900481019282601f106116f457803560ff1916838001178555611722565b82800160010185558215611722579182015b82811115611721578235825591602001919060010190611706565b5b50905061172f9190611733565b5090565b61175591905b80821115611751576000816000905550600101611739565b5090565b9056fea165627a7a7230582022db9466d4326e355b1fe3a451e6c540724bd10cf98b2ee2ebdbb849b4767da70029608060405234801561001057600080fd5b5060405160208061116a8339810180604052602081101561003057600080fd5b8101908080519060200190929190505050336000806101000a81548173ffffffffffffffffffffffffffffffffffffffff021916908373ffffffffffffffffffffffffffffffffffffffff1602179055507f4101e71e974f68df5e9730cc223280b41654676bbb052cdcc735c3337e64d2d96000809054906101000a900473ffffffffffffffffffffffffffffffffffffffff16604051808273ffffffffffffffffffffffffffffffffffffffff1673ffffffffffffffffffffffffffffffffffffffff16815260200191505060405180910390a1600073ffffffffffffffffffffffffffffffffffffffff168173ffffffffffffffffffffffffffffffffffffffff161415151561018d576040517f08c379a000000000000000000000000000000000000000000000000000000000815260040180806020018281038252602d81526020018061113d602d913960400191505060405180910390fd5b80600260016101000a81548173ffffffffffffffffffffffffffffffffffffffff021916908373ffffffffffffffffffffffffffffffffffffffff1602179055506000600260006101000a81548160ff021916908360028111156101ed57fe5b021790555050610f3b806102026000396000f3fe6080604052600436106100c4576000357c0100000000000000000000000000000000000000000000000000000000900480639af6549a116100815780639af6549a14610259578063c19d93fb14610270578063c6dbdf61146102a9578063e3a9db1a14610300578063f340fa0114610365578063f48c4633146103a9576100c4565b80632348238c146100c957806338af3eed1461011a57806343d726d61461017157806351cff8d914610188578063685ca194146101d95780638c52dc4114610242575b600080fd5b3480156100d557600080fd5b50610118600480360360208110156100ec57600080fd5b81019080803573ffffffffffffffffffffffffffffffffffffffff1690602001909291905050506103c0565b005b34801561012657600080fd5b5061012f61051e565b604051808273ffffffffffffffffffffffffffffffffffffffff1673ffffffffffffffffffffffffffffffffffffffff16815260200191505060405180910390f35b34801561017d57600080fd5b50610186610548565b005b34801561019457600080fd5b506101d7600480360360208110156101ab57600080fd5b81019080803573ffffffffffffffffffffffffffffffffffffffff169060200190929190505050610674565b005b3480156101e557600080fd5b50610228600480360360208110156101fc57600080fd5b81019080803573ffffffffffffffffffffffffffffffffffffffff169060200190929190505050610694565b604051808215151515815260200191505060405180910390f35b34801561024e57600080fd5b506102576106c6565b005b34801561026557600080fd5b5061026e6107f3565b005b34801561027c57600080fd5b506102856108f4565b6040518082600281111561029557fe5b60ff16815260200191505060405180910390f35b3480156102b557600080fd5b506102be61090b565b604051808273ffffffffffffffffffffffffffffffffffffffff1673ffffffffffffffffffffffffffffffffffffffff16815260200191505060405180910390f35b34801561030c57600080fd5b5061034f6004803603602081101561032357600080fd5b81019080803573ffffffffffffffffffffffffffffffffffffffff169060200190929190505050610934565b6040518082815260200191505060405180910390f35b6103a76004803603602081101561037b57600080fd5b81019080803573ffffffffffffffffffffffffffffffffffffffff16906020019092919050505061097d565b005b3480156103b557600080fd5b506103be610a09565b005b6000809054906101000a900473ffffffffffffffffffffffffffffffffffffffff1673ffffffffffffffffffffffffffffffffffffffff163373ffffffffffffffffffffffffffffffffffffffff1614151561041b57600080fd5b600073ffffffffffffffffffffffffffffffffffffffff168173ffffffffffffffffffffffffffffffffffffffff161415151561045757600080fd5b806000806101000a81548173ffffffffffffffffffffffffffffffffffffffff021916908373ffffffffffffffffffffffffffffffffffffffff1602179055507f4101e71e974f68df5e9730cc223280b41654676bbb052cdcc735c3337e64d2d96000809054906101000a900473ffffffffffffffffffffffffffffffffffffffff16604051808273ffffffffffffffffffffffffffffffffffffffff1673ffffffffffffffffffffffffffffffffffffffff16815260200191505060405180910390a150565b6000600260019054906101000a900473ffffffffffffffffffffffffffffffffffffffff16905090565b6000809054906101000a900473ffffffffffffffffffffffffffffffffffffffff1673ffffffffffffffffffffffffffffffffffffffff163373ffffffffffffffffffffffffffffffffffffffff161415156105a357600080fd5b600060028111156105b057fe5b600260009054906101000a900460ff1660028111156105cb57fe5b141515610623576040517f08c379a0000000000000000000000000000000000000000000000000000000008152600401808060200182810382526029815260200180610eb56029913960400191505060405180910390fd5b60028060006101000a81548160ff0219169083600281111561064157fe5b02179055507f088672c3a6e342f7cd94a65ba63b79df24a8973927b4d05d803c44bbf787d12f60405160405180910390a1565b61067d81610694565b151561068857600080fd5b61069181610b36565b50565b6000600160028111156106a357fe5b600260009054906101000a900460ff1660028111156106be57fe5b149050919050565b6000809054906101000a900473ffffffffffffffffffffffffffffffffffffffff1673ffffffffffffffffffffffffffffffffffffffff163373ffffffffffffffffffffffffffffffffffffffff1614151561072157600080fd5b6000600281111561072e57fe5b600260009054906101000a900460ff16600281111561074957fe5b1415156107a1576040517f08c379a0000000000000000000000000000000000000000000000000000000008152600401808060200182810382526032815260200180610ede6032913960400191505060405180910390fd5b6001600260006101000a81548160ff021916908360028111156107c057fe5b02179055507f599d8e5a83cffb867d051598c4d70e805d59802d8081c1c7d6dffc5b6aca2b8960405160405180910390a1565b6002808111156107ff57fe5b600260009054906101000a900460ff16600281111561081a57fe5b141515610872576040517f08c379a0000000000000000000000000000000000000000000000000000000008152600401808060200182810382526038815260200180610e1c6038913960400191505060405180910390fd5b600260019054906101000a900473ffffffffffffffffffffffffffffffffffffffff1673ffffffffffffffffffffffffffffffffffffffff166108fc3073ffffffffffffffffffffffffffffffffffffffff16319081150290604051600060405180830381858888f193505050501580156108f1573d6000803e3d6000fd5b50565b6000600260009054906101000a900460ff16905090565b60008060009054906101000a900473ffffffffffffffffffffffffffffffffffffffff16905090565b6000600160008373ffffffffffffffffffffffffffffffffffffffff1673ffffffffffffffffffffffffffffffffffffffff168152602001908152602001600020549050919050565b6000600281111561098a57fe5b600260009054906101000a900460ff1660028111156109a557fe5b1415156109fd576040517f08c379a000000000000000000000000000000000000000000000000000000000815260040180806020018281038252602b815260200180610e8a602b913960400191505060405180910390fd5b610a0681610cb3565b50565b6000809054906101000a900473ffffffffffffffffffffffffffffffffffffffff1673ffffffffffffffffffffffffffffffffffffffff163373ffffffffffffffffffffffffffffffffffffffff16141515610a6457600080fd5b60016002811115610a7157fe5b600260009054906101000a900460ff166002811115610a8c57fe5b141515610ae4576040517f08c379a0000000000000000000000000000000000000000000000000000000008152600401808060200182810382526036815260200180610e546036913960400191505060405180910390fd5b6000600260006101000a81548160ff02191690836002811115610b0357fe5b02179055507f6f9f51c776fa2eae83efa23a12ec950301ebb8667b6ec69e745e047e340f327c60405160405180910390a1565b6000809054906101000a900473ffffffffffffffffffffffffffffffffffffffff1673ffffffffffffffffffffffffffffffffffffffff163373ffffffffffffffffffffffffffffffffffffffff16141515610b9157600080fd5b6000600160008373ffffffffffffffffffffffffffffffffffffffff1673ffffffffffffffffffffffffffffffffffffffff1681526020019081526020016000205490506000600160008473ffffffffffffffffffffffffffffffffffffffff1673ffffffffffffffffffffffffffffffffffffffff168152602001908152602001600020819055508173ffffffffffffffffffffffffffffffffffffffff166108fc829081150290604051600060405180830381858888f19350505050158015610c60573d6000803e3d6000fd5b508173ffffffffffffffffffffffffffffffffffffffff167f7084f5476618d8e60b11ef0d7d3f06914655adb8793e28ff7f018d4c76d505d5826040518082815260200191505060405180910390a25050565b6000809054906101000a900473ffffffffffffffffffffffffffffffffffffffff1673ffffffffffffffffffffffffffffffffffffffff163373ffffffffffffffffffffffffffffffffffffffff16141515610d0e57600080fd5b6000349050610d6581600160008573ffffffffffffffffffffffffffffffffffffffff1673ffffffffffffffffffffffffffffffffffffffff16815260200190815260200160002054610dfa90919063ffffffff16565b600160008473ffffffffffffffffffffffffffffffffffffffff1673ffffffffffffffffffffffffffffffffffffffff168152602001908152602001600020819055508173ffffffffffffffffffffffffffffffffffffffff167f2da466a7b24304f47e87fa2e1e5a81b9831ce54fec19055ce277ca2f39ba42c4826040518082815260200191505060405180910390a25050565b6000808284019050838110151515610e1157600080fd5b809150509291505056fe526566756e64457363726f773a2062656e65666963696172792063616e206f6e6c79207769746864726177207768696c6520636c6f736564526566756e64457363726f773a2063616e206f6e6c792064697361626c6520726566756e6473207768696c6520726566756e64696e67526566756e64457363726f773a2063616e206f6e6c79206465706f736974207768696c6520616374697665526566756e64457363726f773a2063616e206f6e6c7920636c6f7365207768696c6520616374697665526566756e64457363726f773a2063616e206f6e6c7920656e61626c6520726566756e6473207768696c6520616374697665a165627a7a72305820ddfb5b45dd4b93f8fcd0c8651e464b142df236b017c8d1a56b8678d244fc15860029526566756e64457363726f773a2062656e656669636961727920697320746865207a65726f2061646472657373",
  "source": "pragma solidity ^0.5.2;\n\nimport 'openzeppelin-solidity/contracts/math/SafeMath.sol';\nimport './RefundEscrow.sol';\n\ncontract ProductContract {\n    using SafeMath for uint256;\n    enum DeliveryStatus { NotYet, Delivered, Failed }\n\n    RefundEscrow private _escrow;\n\n    string public name;\n    address payable public seller;\n    address payable public buyer;\n    uint256 public amount;\n    bool public shipped;\n    DeliveryStatus delivered;\n\n    constructor(\n        address payable _seller,\n        address payable _buyer,\n        string memory _name\n    ) public {\n        name = _name;\n        seller = _seller;\n        buyer = _buyer;\n        _escrow = new RefundEscrow(seller);\n    }\n\n    modifier onlyBuyer() {\n        require(msg.sender == buyer, \"User is not the Buyer\");\n        _;\n    }\n    modifier onlySeller() {\n        require(msg.sender == seller, \"User is not the Seller\");\n        _;\n    }\n\n    function sendFunds() external onlyBuyer payable {\n        require(msg.value > 0);\n\n        _escrow.deposit.value(msg.value)(buyer);\n    }\n\n    function setName(string calldata _name) external onlySeller {\n        name = _name;\n    }\n\n    function setAmount(uint256 _amount) external onlySeller {\n        amount = _amount;\n    }\n\n    function setDelivered(DeliveryStatus _delivered) external onlyBuyer {\n        delivered = _delivered;\n\n        if (delivered == DeliveryStatus.Failed) {\n            _escrow.enableRefunds();\n        } else {\n            _escrow.disableRefunds();\n        }\n    }\n\n    function setShipped(bool _shipped) external onlySeller {\n        shipped = _shipped;\n    }\n\n    function setBuyer(address payable _buyer) public payable onlySeller {\n        buyer = _buyer;\n        // set buyerToContract mapping in factory\n    }\n\n    function withdrawToSeller() public onlySeller {\n        require(shipped == true);\n        require(delivered == DeliveryStatus.Delivered);\n        require(depoOf() >= amount);\n        _escrow.close();\n        _escrow.beneficiaryWithdraw();\n    }\n\n    function withdrawToBuyer() public onlyBuyer {\n        require(shipped == true);\n        require(delivered == DeliveryStatus.Failed);\n        _escrow.withdraw(buyer);\n    }\n\n    function depoOf() public view returns (uint256) {\n        return _escrow.depositsOf(buyer);\n    }\n\n    function getDetails()\n        external\n        view\n        onlyBuyer\n        onlySeller\n        returns (string memory, address, address, uint256, bool, DeliveryStatus)\n    {\n        return (name, seller, buyer, amount, shipped, delivered);\n    }\n}\n",
  "sourcePath": "/home/opz/Projects/consensus-2019-hackathon/contracts/ProductContract.sol",
  "compiler": {
    "name": "solc",
    "version": "0.5.2+commit.1df8f40c.Emscripten.clang"
  },
  "schemaVersion": "3.0.6",
  "updatedAt": "2019-05-11T23:35:01.718Z",
  "devdoc": {
    "methods": {}
  },
  "userdoc": {
    "methods": {}
  }
}